{
    "_format": "hh-sol-artifact-1",
    "contractName": "BuyMeCoffee",
    "sourceName": "contracts/BuyMeCoffee.sol",
    "abi": [
        {
            "anonymous": false,
            "inputs": [
                {
                    "indexed": true,
                    "internalType": "address",
                    "name": "tipper",
                    "type": "address"
                },
                {
                    "indexed": false,
                    "internalType": "uint256",
                    "name": "value",
                    "type": "uint256"
                },
                {
                    "indexed": false,
                    "internalType": "string",
                    "name": "name",
                    "type": "string"
                },
                {
                    "indexed": false,
                    "internalType": "string",
                    "name": "messsage",
                    "type": "string"
                }
            ],
            "name": "NewDonate",
            "type": "event"
        },
        {
            "anonymous": false,
            "inputs": [
                {
                    "indexed": true,
                    "internalType": "address",
                    "name": "previousOwner",
                    "type": "address"
                },
                {
                    "indexed": true,
                    "internalType": "address",
                    "name": "newOwner",
                    "type": "address"
                }
            ],
            "name": "OwnershipTransferred",
            "type": "event"
        },
        {
            "inputs": [
                {
                    "internalType": "string",
                    "name": "_name",
                    "type": "string"
                },
                {
                    "internalType": "string",
                    "name": "_message",
                    "type": "string"
                }
            ],
            "name": "buyCoffee",
            "outputs": [],
            "stateMutability": "payable",
            "type": "function"
        },
        {
            "inputs": [],
            "name": "getDonners",
            "outputs": [
                {
                    "components": [
                        {
                            "internalType": "address",
                            "name": "tipper",
                            "type": "address"
                        },
                        {
                            "internalType": "uint256",
                            "name": "value",
                            "type": "uint256"
                        },
                        {
                            "internalType": "string",
                            "name": "name",
                            "type": "string"
                        },
                        {
                            "internalType": "string",
                            "name": "message",
                            "type": "string"
                        },
                        {
                            "internalType": "uint256",
                            "name": "timestamp",
                            "type": "uint256"
                        }
                    ],
                    "internalType": "struct BuyMeCoffee.Donate[]",
                    "name": "",
                    "type": "tuple[]"
                }
            ],
            "stateMutability": "view",
            "type": "function"
        },
        {
            "inputs": [],
            "name": "owner",
            "outputs": [
                {
                    "internalType": "address",
                    "name": "",
                    "type": "address"
                }
            ],
            "stateMutability": "view",
            "type": "function"
        },
        {
            "inputs": [],
            "name": "renounceOwnership",
            "outputs": [],
            "stateMutability": "nonpayable",
            "type": "function"
        },
        {
            "inputs": [
                {
                    "internalType": "address",
                    "name": "newOwner",
                    "type": "address"
                }
            ],
            "name": "transferOwnership",
            "outputs": [],
            "stateMutability": "nonpayable",
            "type": "function"
        },
        {
            "inputs": [],
            "name": "withdrawTips",
            "outputs": [],
            "stateMutability": "nonpayable",
            "type": "function"
        }
    ],
    "bytecode": "0x608060405234801561001057600080fd5b5061002d61002261003260201b60201c565b61003a60201b60201c565b6100fe565b600033905090565b60008060009054906101000a900473ffffffffffffffffffffffffffffffffffffffff169050816000806101000a81548173ffffffffffffffffffffffffffffffffffffffff021916908373ffffffffffffffffffffffffffffffffffffffff1602179055508173ffffffffffffffffffffffffffffffffffffffff168173ffffffffffffffffffffffffffffffffffffffff167f8be0079c531659141344cd1fd0a4f28419497f9722a3daafe3b4186f6b6457e060405160405180910390a35050565b6114518061010d6000396000f3fe6080604052600436106100555760003560e01c8063204206e11461005a57806329dc83eb146100765780633aaa74b2146100a1578063715018a6146100b85780638da5cb5b146100cf578063f2fde38b146100fa575b600080fd5b610074600480360381019061006f9190610a87565b610123565b005b34801561008257600080fd5b5061008b6102d1565b6040516100989190610d17565b60405180910390f35b3480156100ad57600080fd5b506100b66104be565b005b3480156100c457600080fd5b506100cd6105b6565b005b3480156100db57600080fd5b506100e46105ca565b6040516100f19190610d48565b60405180910390f35b34801561010657600080fd5b50610121600480360381019061011c9190610d8f565b6105f3565b005b60003411610166576040517f08c379a000000000000000000000000000000000000000000000000000000000815260040161015d90610e19565b60405180910390fd5b60016040518060a001604052803373ffffffffffffffffffffffffffffffffffffffff16815260200134815260200184815260200183815260200142815250908060018154018082558091505060019003906000526020600020906005020160009091909190915060008201518160000160006101000a81548173ffffffffffffffffffffffffffffffffffffffff021916908373ffffffffffffffffffffffffffffffffffffffff1602179055506020820151816001015560408201518160020190816102349190611045565b50606082015181600301908161024a9190611045565b5060808201518160040155505061027b6040518060600160405280602181526020016113fb60219139348484610676565b3373ffffffffffffffffffffffffffffffffffffffff167fc8dc2f44b48367c54b16fe880dd9bb1cda64de28b3167e59bac4ba2a021742f83484846040516102c59392919061115f565b60405180910390a25050565b60606001805480602002602001604051908101604052809291908181526020016000905b828210156104b557838290600052602060002090600502016040518060a00160405290816000820160009054906101000a900473ffffffffffffffffffffffffffffffffffffffff1673ffffffffffffffffffffffffffffffffffffffff1673ffffffffffffffffffffffffffffffffffffffff1681526020016001820154815260200160028201805461038890610e68565b80601f01602080910402602001604051908101604052809291908181526020018280546103b490610e68565b80156104015780601f106103d657610100808354040283529160200191610401565b820191906000526020600020905b8154815290600101906020018083116103e457829003601f168201915b5050505050815260200160038201805461041a90610e68565b80601f016020809104026020016040519081016040528092919081815260200182805461044690610e68565b80156104935780601f1061046857610100808354040283529160200191610493565b820191906000526020600020905b81548152906001019060200180831161047657829003601f168201915b50505050508152602001600482015481525050815260200190600101906102f5565b50505050905090565b6104c6610718565b6105076040518060400160405280602081526020017f5769746864726177696e67202573207765692066726f6d20257320746f202573815250473033610796565b60003373ffffffffffffffffffffffffffffffffffffffff164760405161052d906111d5565b60006040518083038185875af1925050503d806000811461056a576040519150601f19603f3d011682016040523d82523d6000602084013e61056f565b606091505b50509050806105b3576040517f08c379a00000000000000000000000000000000000000000000000000000000081526004016105aa90611236565b60405180910390fd5b50565b6105be610718565b6105c86000610838565b565b60008060009054906101000a900473ffffffffffffffffffffffffffffffffffffffff16905090565b6105fb610718565b600073ffffffffffffffffffffffffffffffffffffffff168173ffffffffffffffffffffffffffffffffffffffff160361066a576040517f08c379a0000000000000000000000000000000000000000000000000000000008152600401610661906112c8565b60405180910390fd5b61067381610838565b50565b6107128484848460405160240161069094939291906112e8565b6040516020818303038152906040527f5ab84e1f000000000000000000000000000000000000000000000000000000007bffffffffffffffffffffffffffffffffffffffffffffffffffffffff19166020820180517bffffffffffffffffffffffffffffffffffffffffffffffffffffffff83818316178352505050506108fc565b50505050565b610720610925565b73ffffffffffffffffffffffffffffffffffffffff1661073e6105ca565b73ffffffffffffffffffffffffffffffffffffffff1614610794576040517f08c379a000000000000000000000000000000000000000000000000000000000815260040161078b9061138e565b60405180910390fd5b565b610832848484846040516024016107b094939291906113ae565b6040516020818303038152906040527f5ea2b7ae000000000000000000000000000000000000000000000000000000007bffffffffffffffffffffffffffffffffffffffffffffffffffffffff19166020820180517bffffffffffffffffffffffffffffffffffffffffffffffffffffffff83818316178352505050506108fc565b50505050565b60008060009054906101000a900473ffffffffffffffffffffffffffffffffffffffff169050816000806101000a81548173ffffffffffffffffffffffffffffffffffffffff021916908373ffffffffffffffffffffffffffffffffffffffff1602179055508173ffffffffffffffffffffffffffffffffffffffff168173ffffffffffffffffffffffffffffffffffffffff167f8be0079c531659141344cd1fd0a4f28419497f9722a3daafe3b4186f6b6457e060405160405180910390a35050565b60008151905060006a636f6e736f6c652e6c6f679050602083016000808483855afa5050505050565b600033905090565b6000604051905090565b600080fd5b600080fd5b600080fd5b600080fd5b6000601f19601f8301169050919050565b7f4e487b7100000000000000000000000000000000000000000000000000000000600052604160045260246000fd5b6109948261094b565b810181811067ffffffffffffffff821117156109b3576109b261095c565b5b80604052505050565b60006109c661092d565b90506109d2828261098b565b919050565b600067ffffffffffffffff8211156109f2576109f161095c565b5b6109fb8261094b565b9050602081019050919050565b82818337600083830152505050565b6000610a2a610a25846109d7565b6109bc565b905082815260208101848484011115610a4657610a45610946565b5b610a51848285610a08565b509392505050565b600082601f830112610a6e57610a6d610941565b5b8135610a7e848260208601610a17565b91505092915050565b60008060408385031215610a9e57610a9d610937565b5b600083013567ffffffffffffffff811115610abc57610abb61093c565b5b610ac885828601610a59565b925050602083013567ffffffffffffffff811115610ae957610ae861093c565b5b610af585828601610a59565b9150509250929050565b600081519050919050565b600082825260208201905092915050565b6000819050602082019050919050565b600073ffffffffffffffffffffffffffffffffffffffff82169050919050565b6000610b5682610b2b565b9050919050565b610b6681610b4b565b82525050565b6000819050919050565b610b7f81610b6c565b82525050565b600081519050919050565b600082825260208201905092915050565b60005b83811015610bbf578082015181840152602081019050610ba4565b60008484015250505050565b6000610bd682610b85565b610be08185610b90565b9350610bf0818560208601610ba1565b610bf98161094b565b840191505092915050565b600060a083016000830151610c1c6000860182610b5d565b506020830151610c2f6020860182610b76565b5060408301518482036040860152610c478282610bcb565b91505060608301518482036060860152610c618282610bcb565b9150506080830151610c766080860182610b76565b508091505092915050565b6000610c8d8383610c04565b905092915050565b6000602082019050919050565b6000610cad82610aff565b610cb78185610b0a565b935083602082028501610cc985610b1b565b8060005b85811015610d055784840389528151610ce68582610c81565b9450610cf183610c95565b925060208a01995050600181019050610ccd565b50829750879550505050505092915050565b60006020820190508181036000830152610d318184610ca2565b905092915050565b610d4281610b4b565b82525050565b6000602082019050610d5d6000830184610d39565b92915050565b610d6c81610b4b565b8114610d7757600080fd5b50565b600081359050610d8981610d63565b92915050565b600060208284031215610da557610da4610937565b5b6000610db384828501610d7a565b91505092915050565b600082825260208201905092915050565b7f43616e277420627579206120636f666665652077697468206e6f206574686572600082015250565b6000610e03602083610dbc565b9150610e0e82610dcd565b602082019050919050565b60006020820190508181036000830152610e3281610df6565b9050919050565b7f4e487b7100000000000000000000000000000000000000000000000000000000600052602260045260246000fd5b60006002820490506001821680610e8057607f821691505b602082108103610e9357610e92610e39565b5b50919050565b60008190508160005260206000209050919050565b60006020601f8301049050919050565b600082821b905092915050565b600060088302610efb7fffffffffffffffffffffffffffffffffffffffffffffffffffffffffffffffff82610ebe565b610f058683610ebe565b95508019841693508086168417925050509392505050565b6000819050919050565b6000610f42610f3d610f3884610b6c565b610f1d565b610b6c565b9050919050565b6000819050919050565b610f5c83610f27565b610f70610f6882610f49565b848454610ecb565b825550505050565b600090565b610f85610f78565b610f90818484610f53565b505050565b5b81811015610fb457610fa9600082610f7d565b600181019050610f96565b5050565b601f821115610ff957610fca81610e99565b610fd384610eae565b81016020851015610fe2578190505b610ff6610fee85610eae565b830182610f95565b50505b505050565b600082821c905092915050565b600061101c60001984600802610ffe565b1980831691505092915050565b6000611035838361100b565b9150826002028217905092915050565b61104e82610b85565b67ffffffffffffffff8111156110675761106661095c565b5b6110718254610e68565b61107c828285610fb8565b600060209050601f8311600181146110af576000841561109d578287015190505b6110a78582611029565b86555061110f565b601f1984166110bd86610e99565b60005b828110156110e5578489015182556001820191506020850194506020810190506110c0565b8683101561110257848901516110fe601f89168261100b565b8355505b6001600288020188555050505b505050505050565b61112081610b6c565b82525050565b600061113182610b85565b61113b8185610dbc565b935061114b818560208601610ba1565b6111548161094b565b840191505092915050565b60006060820190506111746000830186611117565b81810360208301526111868185611126565b9050818103604083015261119a8184611126565b9050949350505050565b600081905092915050565b50565b60006111bf6000836111a4565b91506111ca826111af565b600082019050919050565b60006111e0826111b2565b9150819050919050565b7f5769746864726177206661696c65640000000000000000000000000000000000600082015250565b6000611220600f83610dbc565b915061122b826111ea565b602082019050919050565b6000602082019050818103600083015261124f81611213565b9050919050565b7f4f776e61626c653a206e6577206f776e657220697320746865207a65726f206160008201527f6464726573730000000000000000000000000000000000000000000000000000602082015250565b60006112b2602683610dbc565b91506112bd82611256565b604082019050919050565b600060208201905081810360008301526112e1816112a5565b9050919050565b600060808201905081810360008301526113028187611126565b90506113116020830186611117565b81810360408301526113238185611126565b905081810360608301526113378184611126565b905095945050505050565b7f4f776e61626c653a2063616c6c6572206973206e6f7420746865206f776e6572600082015250565b6000611378602083610dbc565b915061138382611342565b602082019050919050565b600060208201905081810360008301526113a78161136b565b9050919050565b600060808201905081810360008301526113c88187611126565b90506113d76020830186611117565b6113e46040830185610d39565b6113f16060830184610d39565b9594505050505056fe446f6e617465642025732062792025732077697468206d6573736167653a202573a26469706673582212203448cbee2fce7517512c667b576dcc03a36e6bfcaa7f5c0e691970524aad190f64736f6c63430008110033",
    "linkReferences": {},
    "deployedLinkReferences": {}
}